{
  "_format": "hh-sol-artifact-1",
  "contractName": "ProfileImageNfts",
  "sourceName": "contracts/MintProfileImage.sol",
  "abi": [
    {
      "inputs": [],
      "stateMutability": "nonpayable",
      "type": "constructor"
    },
    {
      "anonymous": false,
      "inputs": [
        {
          "indexed": true,
          "internalType": "address",
          "name": "owner",
          "type": "address"
        },
        {
          "indexed": true,
          "internalType": "address",
          "name": "approved",
          "type": "address"
        },
        {
          "indexed": true,
          "internalType": "uint256",
          "name": "tokenId",
          "type": "uint256"
        }
      ],
      "name": "Approval",
      "type": "event"
    },
    {
      "anonymous": false,
      "inputs": [
        {
          "indexed": true,
          "internalType": "address",
          "name": "owner",
          "type": "address"
        },
        {
          "indexed": true,
          "internalType": "address",
          "name": "operator",
          "type": "address"
        },
        {
          "indexed": false,
          "internalType": "bool",
          "name": "approved",
          "type": "bool"
        }
      ],
      "name": "ApprovalForAll",
      "type": "event"
    },
    {
      "anonymous": false,
      "inputs": [
        {
          "indexed": true,
          "internalType": "address",
          "name": "previousOwner",
          "type": "address"
        },
        {
          "indexed": true,
          "internalType": "address",
          "name": "newOwner",
          "type": "address"
        }
      ],
      "name": "OwnershipTransferred",
      "type": "event"
    },
    {
      "anonymous": false,
      "inputs": [
        {
          "indexed": true,
          "internalType": "address",
          "name": "from",
          "type": "address"
        },
        {
          "indexed": true,
          "internalType": "address",
          "name": "to",
          "type": "address"
        },
        {
          "indexed": true,
          "internalType": "uint256",
          "name": "tokenId",
          "type": "uint256"
        }
      ],
      "name": "Transfer",
      "type": "event"
    },
    {
      "inputs": [
        {
          "internalType": "address",
          "name": "to",
          "type": "address"
        },
        {
          "internalType": "uint256",
          "name": "tokenId",
          "type": "uint256"
        }
      ],
      "name": "approve",
      "outputs": [],
      "stateMutability": "nonpayable",
      "type": "function"
    },
    {
      "inputs": [
        {
          "internalType": "address",
          "name": "owner",
          "type": "address"
        }
      ],
      "name": "balanceOf",
      "outputs": [
        {
          "internalType": "uint256",
          "name": "",
          "type": "uint256"
        }
      ],
      "stateMutability": "view",
      "type": "function"
    },
    {
      "inputs": [],
      "name": "getAlltoken",
      "outputs": [
        {
          "components": [
            {
              "internalType": "uint256",
              "name": "id",
              "type": "uint256"
            },
            {
              "internalType": "string",
              "name": "uri",
              "type": "string"
            },
            {
              "internalType": "string",
              "name": "space",
              "type": "string"
            }
          ],
          "internalType": "struct ProfileImageNfts.RenderToken[]",
          "name": "",
          "type": "tuple[]"
        }
      ],
      "stateMutability": "view",
      "type": "function"
    },
    {
      "inputs": [
        {
          "internalType": "uint256",
          "name": "tokenId",
          "type": "uint256"
        }
      ],
      "name": "getApproved",
      "outputs": [
        {
          "internalType": "address",
          "name": "",
          "type": "address"
        }
      ],
      "stateMutability": "view",
      "type": "function"
    },
    {
      "inputs": [
        {
          "internalType": "address",
          "name": "owner",
          "type": "address"
        },
        {
          "internalType": "address",
          "name": "operator",
          "type": "address"
        }
      ],
      "name": "isApprovedForAll",
      "outputs": [
        {
          "internalType": "bool",
          "name": "",
          "type": "bool"
        }
      ],
      "stateMutability": "view",
      "type": "function"
    },
    {
      "inputs": [
        {
          "internalType": "address",
          "name": "recipents",
          "type": "address"
        },
        {
          "internalType": "string",
          "name": "_uri",
          "type": "string"
        }
      ],
      "name": "mint",
      "outputs": [
        {
          "internalType": "uint256",
          "name": "",
          "type": "uint256"
        }
      ],
      "stateMutability": "nonpayable",
      "type": "function"
    },
    {
      "inputs": [],
      "name": "name",
      "outputs": [
        {
          "internalType": "string",
          "name": "",
          "type": "string"
        }
      ],
      "stateMutability": "view",
      "type": "function"
    },
    {
      "inputs": [],
      "name": "owner",
      "outputs": [
        {
          "internalType": "address",
          "name": "",
          "type": "address"
        }
      ],
      "stateMutability": "view",
      "type": "function"
    },
    {
      "inputs": [
        {
          "internalType": "uint256",
          "name": "tokenId",
          "type": "uint256"
        }
      ],
      "name": "ownerOf",
      "outputs": [
        {
          "internalType": "address",
          "name": "",
          "type": "address"
        }
      ],
      "stateMutability": "view",
      "type": "function"
    },
    {
      "inputs": [],
      "name": "renounceOwnership",
      "outputs": [],
      "stateMutability": "nonpayable",
      "type": "function"
    },
    {
      "inputs": [
        {
          "internalType": "address",
          "name": "from",
          "type": "address"
        },
        {
          "internalType": "address",
          "name": "to",
          "type": "address"
        },
        {
          "internalType": "uint256",
          "name": "tokenId",
          "type": "uint256"
        }
      ],
      "name": "safeTransferFrom",
      "outputs": [],
      "stateMutability": "nonpayable",
      "type": "function"
    },
    {
      "inputs": [
        {
          "internalType": "address",
          "name": "from",
          "type": "address"
        },
        {
          "internalType": "address",
          "name": "to",
          "type": "address"
        },
        {
          "internalType": "uint256",
          "name": "tokenId",
          "type": "uint256"
        },
        {
          "internalType": "bytes",
          "name": "data",
          "type": "bytes"
        }
      ],
      "name": "safeTransferFrom",
      "outputs": [],
      "stateMutability": "nonpayable",
      "type": "function"
    },
    {
      "inputs": [
        {
          "internalType": "address",
          "name": "operator",
          "type": "address"
        },
        {
          "internalType": "bool",
          "name": "approved",
          "type": "bool"
        }
      ],
      "name": "setApprovalForAll",
      "outputs": [],
      "stateMutability": "nonpayable",
      "type": "function"
    },
    {
      "inputs": [
        {
          "internalType": "bytes4",
          "name": "interfaceId",
          "type": "bytes4"
        }
      ],
      "name": "supportsInterface",
      "outputs": [
        {
          "internalType": "bool",
          "name": "",
          "type": "bool"
        }
      ],
      "stateMutability": "view",
      "type": "function"
    },
    {
      "inputs": [],
      "name": "symbol",
      "outputs": [
        {
          "internalType": "string",
          "name": "",
          "type": "string"
        }
      ],
      "stateMutability": "view",
      "type": "function"
    },
    {
      "inputs": [
        {
          "internalType": "uint256",
          "name": "tokenId",
          "type": "uint256"
        }
      ],
      "name": "tokenURI",
      "outputs": [
        {
          "internalType": "string",
          "name": "",
          "type": "string"
        }
      ],
      "stateMutability": "view",
      "type": "function"
    },
    {
      "inputs": [
        {
          "internalType": "address",
          "name": "from",
          "type": "address"
        },
        {
          "internalType": "address",
          "name": "to",
          "type": "address"
        },
        {
          "internalType": "uint256",
          "name": "tokenId",
          "type": "uint256"
        }
      ],
      "name": "transferFrom",
      "outputs": [],
      "stateMutability": "nonpayable",
      "type": "function"
    },
    {
      "inputs": [
        {
          "internalType": "address",
          "name": "newOwner",
          "type": "address"
        }
      ],
      "name": "transferOwnership",
      "outputs": [],
      "stateMutability": "nonpayable",
      "type": "function"
    }
  ],
  "bytecode": "0x60806040523480156200001157600080fd5b506040518060400160405280601081526020017f50726f66696c65496d6167654e667473000000000000000000000000000000008152506040518060400160405280600381526020017f50494e0000000000000000000000000000000000000000000000000000000000815250816000908051906020019062000096929190620001a6565b508060019080519060200190620000af929190620001a6565b505050620000d2620000c6620000d860201b60201c565b620000e060201b60201c565b620002bb565b600033905090565b6000600660009054906101000a900473ffffffffffffffffffffffffffffffffffffffff16905081600660006101000a81548173ffffffffffffffffffffffffffffffffffffffff021916908373ffffffffffffffffffffffffffffffffffffffff1602179055508173ffffffffffffffffffffffffffffffffffffffff168173ffffffffffffffffffffffffffffffffffffffff167f8be0079c531659141344cd1fd0a4f28419497f9722a3daafe3b4186f6b6457e060405160405180910390a35050565b828054620001b49062000256565b90600052602060002090601f016020900481019282620001d8576000855562000224565b82601f10620001f357805160ff191683800117855562000224565b8280016001018555821562000224579182015b828111156200022357825182559160200191906001019062000206565b5b50905062000233919062000237565b5090565b5b808211156200025257600081600090555060010162000238565b5090565b600060028204905060018216806200026f57607f821691505b602082108114156200028657620002856200028c565b5b50919050565b7f4e487b7100000000000000000000000000000000000000000000000000000000600052602260045260246000fd5b612b7180620002cb6000396000f3fe608060405234801561001057600080fd5b50600436106101165760003560e01c8063715018a6116100a2578063b88d4fde11610071578063b88d4fde146102cd578063c87b56dd146102e9578063d0def52114610319578063e985e9c514610349578063f2fde38b1461037957610116565b8063715018a61461026b5780638da5cb5b1461027557806395d89b4114610293578063a22cb465146102b157610116565b806323b872dd116100e957806323b872dd146101b557806328904431146101d157806342842e0e146101ef5780636352211e1461020b57806370a082311461023b57610116565b806301ffc9a71461011b57806306fdde031461014b578063081812fc14610169578063095ea7b314610199575b600080fd5b61013560048036038101906101309190611d11565b610395565b60405161014291906121c6565b60405180910390f35b610153610477565b60405161016091906121e1565b60405180910390f35b610183600480360381019061017e9190611d63565b610509565b604051610190919061213d565b60405180910390f35b6101b360048036038101906101ae9190611cd5565b61054f565b005b6101cf60048036038101906101ca9190611b7b565b610667565b005b6101d96106c7565b6040516101e691906121a4565b60405180910390f35b61020960048036038101906102049190611b7b565b61082c565b005b61022560048036038101906102209190611d63565b61084c565b604051610232919061213d565b60405180910390f35b61025560048036038101906102509190611b16565b6108fe565b60405161026291906123c3565b60405180910390f35b6102736109b6565b005b61027d6109ca565b60405161028a919061213d565b60405180910390f35b61029b6109f4565b6040516102a891906121e1565b60405180910390f35b6102cb60048036038101906102c69190611c45565b610a86565b005b6102e760048036038101906102e29190611bca565b610a9c565b005b61030360048036038101906102fe9190611d63565b610afe565b60405161031091906121e1565b60405180910390f35b610333600480360381019061032e9190611c81565b610bf1565b60405161034091906123c3565b60405180910390f35b610363600480360381019061035e9190611b3f565b610c28565b60405161037091906121c6565b60405180910390f35b610393600480360381019061038e9190611b16565b610cbc565b005b60007f80ac58cd000000000000000000000000000000000000000000000000000000007bffffffffffffffffffffffffffffffffffffffffffffffffffffffff1916827bffffffffffffffffffffffffffffffffffffffffffffffffffffffff1916148061046057507f5b5e139f000000000000000000000000000000000000000000000000000000007bffffffffffffffffffffffffffffffffffffffffffffffffffffffff1916827bffffffffffffffffffffffffffffffffffffffffffffffffffffffff1916145b80610470575061046f82610d40565b5b9050919050565b60606000805461048690612627565b80601f01602080910402602001604051908101604052809291908181526020018280546104b290612627565b80156104ff5780601f106104d4576101008083540402835291602001916104ff565b820191906000526020600020905b8154815290600101906020018083116104e257829003601f168201915b5050505050905090565b600061051482610daa565b6004600083815260200190815260200160002060009054906101000a900473ffffffffffffffffffffffffffffffffffffffff169050919050565b600061055a8261084c565b90508073ffffffffffffffffffffffffffffffffffffffff168373ffffffffffffffffffffffffffffffffffffffff1614156105cb576040517f08c379a00000000000000000000000000000000000000000000000000000000081526004016105c290612363565b60405180910390fd5b8073ffffffffffffffffffffffffffffffffffffffff166105ea610df5565b73ffffffffffffffffffffffffffffffffffffffff161480610619575061061881610613610df5565b610c28565b5b610658576040517f08c379a000000000000000000000000000000000000000000000000000000000815260040161064f906122e3565b60405180910390fd5b6106628383610dfd565b505050565b610678610672610df5565b82610eb6565b6106b7576040517f08c379a00000000000000000000000000000000000000000000000000000000081526004016106ae906123a3565b60405180910390fd5b6106c2838383610f4b565b505050565b606060006106d560076111b2565b905060008167ffffffffffffffff811115610719577f4e487b7100000000000000000000000000000000000000000000000000000000600052604160045260246000fd5b60405190808252806020026020018201604052801561075257816020015b61073f611919565b8152602001906001900390816107375790505b50905060005b82811161082357610768816111c0565b1561081057600061077882610afe565b905060405180606001604052808381526020018281526020016040518060400160405280600181526020017f2000000000000000000000000000000000000000000000000000000000000000815250815250838381518110610803577f4e487b7100000000000000000000000000000000000000000000000000000000600052603260045260246000fd5b6020026020010181905250505b808061081b9061268a565b915050610758565b50809250505090565b61084783838360405180602001604052806000815250610a9c565b505050565b6000806002600084815260200190815260200160002060009054906101000a900473ffffffffffffffffffffffffffffffffffffffff169050600073ffffffffffffffffffffffffffffffffffffffff168173ffffffffffffffffffffffffffffffffffffffff1614156108f5576040517f08c379a00000000000000000000000000000000000000000000000000000000081526004016108ec90612343565b60405180910390fd5b80915050919050565b60008073ffffffffffffffffffffffffffffffffffffffff168273ffffffffffffffffffffffffffffffffffffffff16141561096f576040517f08c379a0000000000000000000000000000000000000000000000000000000008152600401610966906122c3565b60405180910390fd5b600360008373ffffffffffffffffffffffffffffffffffffffff1673ffffffffffffffffffffffffffffffffffffffff168152602001908152602001600020549050919050565b6109be61122c565b6109c860006112aa565b565b6000600660009054906101000a900473ffffffffffffffffffffffffffffffffffffffff16905090565b606060018054610a0390612627565b80601f0160208091040260200160405190810160405280929190818152602001828054610a2f90612627565b8015610a7c5780601f10610a5157610100808354040283529160200191610a7c565b820191906000526020600020905b815481529060010190602001808311610a5f57829003601f168201915b5050505050905090565b610a98610a91610df5565b8383611370565b5050565b610aad610aa7610df5565b83610eb6565b610aec576040517f08c379a0000000000000000000000000000000000000000000000000000000008152600401610ae3906123a3565b60405180910390fd5b610af8848484846114dd565b50505050565b6060610b09826111c0565b610b48576040517f08c379a0000000000000000000000000000000000000000000000000000000008152600401610b3f90612383565b60405180910390fd5b6000600860008481526020019081526020016000208054610b6890612627565b80601f0160208091040260200160405190810160405280929190818152602001828054610b9490612627565b8015610be15780601f10610bb657610100808354040283529160200191610be1565b820191906000526020600020905b815481529060010190602001808311610bc457829003601f168201915b5050505050905080915050919050565b600080610bfe60076111b2565b9050610c0a8482611539565b610c148184611713565b610c1e600761173f565b8091505092915050565b6000600560008473ffffffffffffffffffffffffffffffffffffffff1673ffffffffffffffffffffffffffffffffffffffff16815260200190815260200160002060008373ffffffffffffffffffffffffffffffffffffffff1673ffffffffffffffffffffffffffffffffffffffff16815260200190815260200160002060009054906101000a900460ff16905092915050565b610cc461122c565b600073ffffffffffffffffffffffffffffffffffffffff168173ffffffffffffffffffffffffffffffffffffffff161415610d34576040517f08c379a0000000000000000000000000000000000000000000000000000000008152600401610d2b90612223565b60405180910390fd5b610d3d816112aa565b50565b60007f01ffc9a7000000000000000000000000000000000000000000000000000000007bffffffffffffffffffffffffffffffffffffffffffffffffffffffff1916827bffffffffffffffffffffffffffffffffffffffffffffffffffffffff1916149050919050565b610db3816111c0565b610df2576040517f08c379a0000000000000000000000000000000000000000000000000000000008152600401610de990612343565b60405180910390fd5b50565b600033905090565b816004600083815260200190815260200160002060006101000a81548173ffffffffffffffffffffffffffffffffffffffff021916908373ffffffffffffffffffffffffffffffffffffffff160217905550808273ffffffffffffffffffffffffffffffffffffffff16610e708361084c565b73ffffffffffffffffffffffffffffffffffffffff167f8c5be1e5ebec7d5bd14f71427d1e84f3dd0314c0f7b2291e5b200ac8c7c3b92560405160405180910390a45050565b600080610ec28361084c565b90508073ffffffffffffffffffffffffffffffffffffffff168473ffffffffffffffffffffffffffffffffffffffff161480610f045750610f038185610c28565b5b80610f4257508373ffffffffffffffffffffffffffffffffffffffff16610f2a84610509565b73ffffffffffffffffffffffffffffffffffffffff16145b91505092915050565b8273ffffffffffffffffffffffffffffffffffffffff16610f6b8261084c565b73ffffffffffffffffffffffffffffffffffffffff1614610fc1576040517f08c379a0000000000000000000000000000000000000000000000000000000008152600401610fb890612243565b60405180910390fd5b600073ffffffffffffffffffffffffffffffffffffffff168273ffffffffffffffffffffffffffffffffffffffff161415611031576040517f08c379a000000000000000000000000000000000000000000000000000000000815260040161102890612283565b60405180910390fd5b61103c838383611755565b611047600082610dfd565b6001600360008573ffffffffffffffffffffffffffffffffffffffff1673ffffffffffffffffffffffffffffffffffffffff1681526020019081526020016000206000828254611097919061253d565b925050819055506001600360008473ffffffffffffffffffffffffffffffffffffffff1673ffffffffffffffffffffffffffffffffffffffff16815260200190815260200160002060008282546110ee91906124e7565b92505081905550816002600083815260200190815260200160002060006101000a81548173ffffffffffffffffffffffffffffffffffffffff021916908373ffffffffffffffffffffffffffffffffffffffff160217905550808273ffffffffffffffffffffffffffffffffffffffff168473ffffffffffffffffffffffffffffffffffffffff167fddf252ad1be2c89b69c2b068fc378daa952ba7f163c4a11628f55a4df523b3ef60405160405180910390a46111ad83838361175a565b505050565b600081600001549050919050565b60008073ffffffffffffffffffffffffffffffffffffffff166002600084815260200190815260200160002060009054906101000a900473ffffffffffffffffffffffffffffffffffffffff1673ffffffffffffffffffffffffffffffffffffffff1614159050919050565b611234610df5565b73ffffffffffffffffffffffffffffffffffffffff166112526109ca565b73ffffffffffffffffffffffffffffffffffffffff16146112a8576040517f08c379a000000000000000000000000000000000000000000000000000000000815260040161129f90612323565b60405180910390fd5b565b6000600660009054906101000a900473ffffffffffffffffffffffffffffffffffffffff16905081600660006101000a81548173ffffffffffffffffffffffffffffffffffffffff021916908373ffffffffffffffffffffffffffffffffffffffff1602179055508173ffffffffffffffffffffffffffffffffffffffff168173ffffffffffffffffffffffffffffffffffffffff167f8be0079c531659141344cd1fd0a4f28419497f9722a3daafe3b4186f6b6457e060405160405180910390a35050565b8173ffffffffffffffffffffffffffffffffffffffff168373ffffffffffffffffffffffffffffffffffffffff1614156113df576040517f08c379a00000000000000000000000000000000000000000000000000000000081526004016113d6906122a3565b60405180910390fd5b80600560008573ffffffffffffffffffffffffffffffffffffffff1673ffffffffffffffffffffffffffffffffffffffff16815260200190815260200160002060008473ffffffffffffffffffffffffffffffffffffffff1673ffffffffffffffffffffffffffffffffffffffff16815260200190815260200160002060006101000a81548160ff0219169083151502179055508173ffffffffffffffffffffffffffffffffffffffff168373ffffffffffffffffffffffffffffffffffffffff167f17307eab39ab6107e8899845ad3d59bd9653f200f220920489ca2b5937696c31836040516114d091906121c6565b60405180910390a3505050565b6114e8848484610f4b565b6114f48484848461175f565b611533576040517f08c379a000000000000000000000000000000000000000000000000000000000815260040161152a90612203565b60405180910390fd5b50505050565b600073ffffffffffffffffffffffffffffffffffffffff168273ffffffffffffffffffffffffffffffffffffffff1614156115a9576040517f08c379a00000000000000000000000000000000000000000000000000000000081526004016115a090612303565b60405180910390fd5b6115b2816111c0565b156115f2576040517f08c379a00000000000000000000000000000000000000000000000000000000081526004016115e990612263565b60405180910390fd5b6115fe60008383611755565b6001600360008473ffffffffffffffffffffffffffffffffffffffff1673ffffffffffffffffffffffffffffffffffffffff168152602001908152602001600020600082825461164e91906124e7565b92505081905550816002600083815260200190815260200160002060006101000a81548173ffffffffffffffffffffffffffffffffffffffff021916908373ffffffffffffffffffffffffffffffffffffffff160217905550808273ffffffffffffffffffffffffffffffffffffffff16600073ffffffffffffffffffffffffffffffffffffffff167fddf252ad1be2c89b69c2b068fc378daa952ba7f163c4a11628f55a4df523b3ef60405160405180910390a461170f6000838361175a565b5050565b8060086000848152602001908152602001600020908051906020019061173a92919061193a565b505050565b6001816000016000828254019250508190555050565b505050565b505050565b60006117808473ffffffffffffffffffffffffffffffffffffffff166118f6565b156118e9578373ffffffffffffffffffffffffffffffffffffffff1663150b7a026117a9610df5565b8786866040518563ffffffff1660e01b81526004016117cb9493929190612158565b602060405180830381600087803b1580156117e557600080fd5b505af192505050801561181657506040513d601f19601f820116820180604052508101906118139190611d3a565b60015b611899573d8060008114611846576040519150601f19603f3d011682016040523d82523d6000602084013e61184b565b606091505b50600081511415611891576040517f08c379a000000000000000000000000000000000000000000000000000000000815260040161188890612203565b60405180910390fd5b805181602001fd5b63150b7a0260e01b7bffffffffffffffffffffffffffffffffffffffffffffffffffffffff1916817bffffffffffffffffffffffffffffffffffffffffffffffffffffffff1916149150506118ee565b600190505b949350505050565b6000808273ffffffffffffffffffffffffffffffffffffffff163b119050919050565b60405180606001604052806000815260200160608152602001606081525090565b82805461194690612627565b90600052602060002090601f01602090048101928261196857600085556119af565b82601f1061198157805160ff19168380011785556119af565b828001600101855582156119af579182015b828111156119ae578251825591602001919060010190611993565b5b5090506119bc91906119c0565b5090565b5b808211156119d95760008160009055506001016119c1565b5090565b60006119f06119eb84612403565b6123de565b905082815260208101848484011115611a0857600080fd5b611a138482856125e5565b509392505050565b6000611a2e611a2984612434565b6123de565b905082815260208101848484011115611a4657600080fd5b611a518482856125e5565b509392505050565b600081359050611a6881612adf565b92915050565b600081359050611a7d81612af6565b92915050565b600081359050611a9281612b0d565b92915050565b600081519050611aa781612b0d565b92915050565b600082601f830112611abe57600080fd5b8135611ace8482602086016119dd565b91505092915050565b600082601f830112611ae857600080fd5b8135611af8848260208601611a1b565b91505092915050565b600081359050611b1081612b24565b92915050565b600060208284031215611b2857600080fd5b6000611b3684828501611a59565b91505092915050565b60008060408385031215611b5257600080fd5b6000611b6085828601611a59565b9250506020611b7185828601611a59565b9150509250929050565b600080600060608486031215611b9057600080fd5b6000611b9e86828701611a59565b9350506020611baf86828701611a59565b9250506040611bc086828701611b01565b9150509250925092565b60008060008060808587031215611be057600080fd5b6000611bee87828801611a59565b9450506020611bff87828801611a59565b9350506040611c1087828801611b01565b925050606085013567ffffffffffffffff811115611c2d57600080fd5b611c3987828801611aad565b91505092959194509250565b60008060408385031215611c5857600080fd5b6000611c6685828601611a59565b9250506020611c7785828601611a6e565b9150509250929050565b60008060408385031215611c9457600080fd5b6000611ca285828601611a59565b925050602083013567ffffffffffffffff811115611cbf57600080fd5b611ccb85828601611ad7565b9150509250929050565b60008060408385031215611ce857600080fd5b6000611cf685828601611a59565b9250506020611d0785828601611b01565b9150509250929050565b600060208284031215611d2357600080fd5b6000611d3184828501611a83565b91505092915050565b600060208284031215611d4c57600080fd5b6000611d5a84828501611a98565b91505092915050565b600060208284031215611d7557600080fd5b6000611d8384828501611b01565b91505092915050565b6000611d9883836120c8565b905092915050565b611da981612571565b82525050565b6000611dba82612475565b611dc481856124a3565b935083602082028501611dd685612465565b8060005b85811015611e125784840389528151611df38582611d8c565b9450611dfe83612496565b925060208a01995050600181019050611dda565b50829750879550505050505092915050565b611e2d81612583565b82525050565b6000611e3e82612480565b611e4881856124b4565b9350611e588185602086016125f4565b611e6181612760565b840191505092915050565b6000611e778261248b565b611e8181856124c5565b9350611e918185602086016125f4565b611e9a81612760565b840191505092915050565b6000611eb08261248b565b611eba81856124d6565b9350611eca8185602086016125f4565b611ed381612760565b840191505092915050565b6000611eeb6032836124d6565b9150611ef682612771565b604082019050919050565b6000611f0e6026836124d6565b9150611f19826127c0565b604082019050919050565b6000611f316025836124d6565b9150611f3c8261280f565b604082019050919050565b6000611f54601c836124d6565b9150611f5f8261285e565b602082019050919050565b6000611f776024836124d6565b9150611f8282612887565b604082019050919050565b6000611f9a6019836124d6565b9150611fa5826128d6565b602082019050919050565b6000611fbd6029836124d6565b9150611fc8826128ff565b604082019050919050565b6000611fe0603e836124d6565b9150611feb8261294e565b604082019050919050565b60006120036020836124d6565b915061200e8261299d565b602082019050919050565b60006120266020836124d6565b9150612031826129c6565b602082019050919050565b60006120496018836124d6565b9150612054826129ef565b602082019050919050565b600061206c6021836124d6565b915061207782612a18565b604082019050919050565b600061208f6018836124d6565b915061209a82612a67565b602082019050919050565b60006120b2602e836124d6565b91506120bd82612a90565b604082019050919050565b60006060830160008301516120e0600086018261211f565b50602083015184820360208601526120f88282611e6c565b915050604083015184820360408601526121128282611e6c565b9150508091505092915050565b612128816125db565b82525050565b612137816125db565b82525050565b60006020820190506121526000830184611da0565b92915050565b600060808201905061216d6000830187611da0565b61217a6020830186611da0565b612187604083018561212e565b81810360608301526121998184611e33565b905095945050505050565b600060208201905081810360008301526121be8184611daf565b905092915050565b60006020820190506121db6000830184611e24565b92915050565b600060208201905081810360008301526121fb8184611ea5565b905092915050565b6000602082019050818103600083015261221c81611ede565b9050919050565b6000602082019050818103600083015261223c81611f01565b9050919050565b6000602082019050818103600083015261225c81611f24565b9050919050565b6000602082019050818103600083015261227c81611f47565b9050919050565b6000602082019050818103600083015261229c81611f6a565b9050919050565b600060208201905081810360008301526122bc81611f8d565b9050919050565b600060208201905081810360008301526122dc81611fb0565b9050919050565b600060208201905081810360008301526122fc81611fd3565b9050919050565b6000602082019050818103600083015261231c81611ff6565b9050919050565b6000602082019050818103600083015261233c81612019565b9050919050565b6000602082019050818103600083015261235c8161203c565b9050919050565b6000602082019050818103600083015261237c8161205f565b9050919050565b6000602082019050818103600083015261239c81612082565b9050919050565b600060208201905081810360008301526123bc816120a5565b9050919050565b60006020820190506123d8600083018461212e565b92915050565b60006123e86123f9565b90506123f48282612659565b919050565b6000604051905090565b600067ffffffffffffffff82111561241e5761241d612731565b5b61242782612760565b9050602081019050919050565b600067ffffffffffffffff82111561244f5761244e612731565b5b61245882612760565b9050602081019050919050565b6000819050602082019050919050565b600081519050919050565b600081519050919050565b600081519050919050565b6000602082019050919050565b600082825260208201905092915050565b600082825260208201905092915050565b600082825260208201905092915050565b600082825260208201905092915050565b60006124f2826125db565b91506124fd836125db565b9250827fffffffffffffffffffffffffffffffffffffffffffffffffffffffffffffffff03821115612532576125316126d3565b5b828201905092915050565b6000612548826125db565b9150612553836125db565b925082821015612566576125656126d3565b5b828203905092915050565b600061257c826125bb565b9050919050565b60008115159050919050565b60007fffffffff0000000000000000000000000000000000000000000000000000000082169050919050565b600073ffffffffffffffffffffffffffffffffffffffff82169050919050565b6000819050919050565b82818337600083830152505050565b60005b838110156126125780820151818401526020810190506125f7565b83811115612621576000848401525b50505050565b6000600282049050600182168061263f57607f821691505b6020821081141561265357612652612702565b5b50919050565b61266282612760565b810181811067ffffffffffffffff8211171561268157612680612731565b5b80604052505050565b6000612695826125db565b91507fffffffffffffffffffffffffffffffffffffffffffffffffffffffffffffffff8214156126c8576126c76126d3565b5b600182019050919050565b7f4e487b7100000000000000000000000000000000000000000000000000000000600052601160045260246000fd5b7f4e487b7100000000000000000000000000000000000000000000000000000000600052602260045260246000fd5b7f4e487b7100000000000000000000000000000000000000000000000000000000600052604160045260246000fd5b6000601f19601f8301169050919050565b7f4552433732313a207472616e7366657220746f206e6f6e20455243373231526560008201527f63656976657220696d706c656d656e7465720000000000000000000000000000602082015250565b7f4f776e61626c653a206e6577206f776e657220697320746865207a65726f206160008201527f6464726573730000000000000000000000000000000000000000000000000000602082015250565b7f4552433732313a207472616e736665722066726f6d20696e636f72726563742060008201527f6f776e6572000000000000000000000000000000000000000000000000000000602082015250565b7f4552433732313a20746f6b656e20616c7265616479206d696e74656400000000600082015250565b7f4552433732313a207472616e7366657220746f20746865207a65726f2061646460008201527f7265737300000000000000000000000000000000000000000000000000000000602082015250565b7f4552433732313a20617070726f766520746f2063616c6c657200000000000000600082015250565b7f4552433732313a2061646472657373207a65726f206973206e6f74206120766160008201527f6c6964206f776e65720000000000000000000000000000000000000000000000602082015250565b7f4552433732313a20617070726f76652063616c6c6572206973206e6f7420746f60008201527f6b656e206f776e6572206e6f7220617070726f76656420666f7220616c6c0000602082015250565b7f4552433732313a206d696e7420746f20746865207a65726f2061646472657373600082015250565b7f4f776e61626c653a2063616c6c6572206973206e6f7420746865206f776e6572600082015250565b7f4552433732313a20696e76616c696420746f6b656e2049440000000000000000600082015250565b7f4552433732313a20617070726f76616c20746f2063757272656e74206f776e6560008201527f7200000000000000000000000000000000000000000000000000000000000000602082015250565b7f555249206e6f74206578697374206f6e20746861742049440000000000000000600082015250565b7f4552433732313a2063616c6c6572206973206e6f7420746f6b656e206f776e6560008201527f72206e6f7220617070726f766564000000000000000000000000000000000000602082015250565b612ae881612571565b8114612af357600080fd5b50565b612aff81612583565b8114612b0a57600080fd5b50565b612b168161258f565b8114612b2157600080fd5b50565b612b2d816125db565b8114612b3857600080fd5b5056fea26469706673582212200e81ac3cd4d3080796f46f41280c8100ff351f2d5b0079b59196ee2242f24abe64736f6c63430008040033",
  "linkReferences": {},
  "deployedLinkReferences": {}
}